:020000040000fa
:080000000002040000000000f2
:020000040000fa
:0400080012040000de
:020000040000fa
:04000c005404000098
:020000040000fa
:040010009404000054
:020000040000fa
:0400140032040000b2
:020000040000fa
:04001800740400006c
:020000040000fa
:04001c003e0700009b
:020000040000fa
:04002000b404000024
:020000040000fa
:040024003e07000093
:020000040000fa
:040028003e0700008f
:020000040000fa
:04002c00a606000024
:020000040000fa
:040030003e07000087
:020000040000fa
:040034003e07000083
:020000040000fa
:040038003e0700007f
:020000040000fa
:04003c003e0700007b
:020000040000fa
:040040003e07000077
:020000040000fa
:0400440010070000a1
:020000040000fa
:040048003e0700006f
:020000040000fa
:04004c003e0700006b
:020000040000fa
:040050003e07000067
:020000040000fa
:040054003e07000063
:020000040000fa
:040058003e0700005f
:020000040000fa
:04005c003e0700005b
:020000040000fa
:040060003e07000057
:020000040000fa
:040064003e07000053
:020000040000fa
:040068003e0700004f
:020000040000fa
:04006c003e0700004b
:020000040000fa
:040070003e07000047
:020000040000fa
:040074003e07000043
:020000040000fa
:040078003e0700003f
:020000040000fa
:04007c003e0700003b
:020000040000fa
:040080003e07000037
:020000040000fa
:040084003e07000033
:020000040000fa
:040088003e0700002f
:020000040000fa
:04008c003e0700002b
:020000040000fa
:040090003e07000027
:020000040000fa
:040094003e07000023
:020000040000fa
:040098003e0700001f
:020000040000fa
:04009c003e0700001b
:020000040000fa
:0400a0003e07000017
:020000040000fa
:0400a4003e07000013
:020000040000fa
:0400a8003e0700000f
:020000040000fa
:0400ac003e0700000b
:020000040000fa
:0400b0003e07000007
:020000040000fa
:0400b4003e07000003
:020000040000fa
:0400b8003e070000ff
:020000040000fa
:0400bc003e070000fb
:020000040000fa
:0400c0003e070000f7
:020000040000fa
:0400c4003e070000f3
:020000040000fa
:0400c8003e070000ef
:020000040000fa
:0400cc003e070000eb
:020000040000fa
:0400d0003e070000e7
:020000040000fa
:0400d4003e070000e3
:020000040000fa
:0400d8003e070000df
:020000040000fa
:0400dc003e070000db
:020000040000fa
:0400e0003e070000d7
:020000040000fa
:0400e4003e070000d3
:020000040000fa
:0400e8003e070000cf
:020000040000fa
:0400ec003e070000cb
:020000040000fa
:0400f0003e070000c7
:020000040000fa
:0400f4003e070000c3
:020000040000fa
:0400f8003e070000bf
:020000040000fa
:0400fc003e070000bb
:020000040000fa
:040100003e070000b6
:020000040000fa
:040104003e070000b2
:020000040000fa
:040108003e070000ae
:020000040000fa
:04010c003e070000aa
:020000040000fa
:040110003e070000a6
:020000040000fa
:040114003e070000a2
:020000040000fa
:040118003e0700009e
:020000040000fa
:04011c003e0700009a
:020000040000fa
:040120003e07000096
:020000040000fa
:040124003e07000092
:020000040000fa
:040128003e0700008e
:020000040000fa
:04012c003e0700008a
:020000040000fa
:040130003e07000086
:020000040000fa
:04013400ea060000d7
:020000040000fa
:040138003e0700007e
:020000040000fa
:04013c003e0700007a
:020000040000fa
:040140003e07000076
:020000040000fa
:040144003e07000072
:020000040000fa
:040148003e0700006e
:020000040000fa
:04014c003e0700006a
:020000040000fa
:040150003e07000066
:020000040000fa
:040154003e07000062
:020000040000fa
:040158001406000089
:020000040000fa
:04015c003e0700005a
:020000040000fa
:040160003e07000056
:020000040000fa
:040164003e07000052
:020000040000fa
:040168003e0700004e
:020000040000fa
:04016c003e0700004a
:020000040000fa
:040170003e07000046
:020000040000fa
:040174003e07000042
:020000040000fa
:040178003e0700003e
:020000040000fa
:04017c003e0700003a
:020000040000fa
:040180003e07000036
:020000040000fa
:040184003e07000032
:020000040000fa
:040188003e0700002e
:020000040000fa
:04018c003e0700002a
:020000040000fa
:04019000ee04000079
:020000040000fa
:040194003e07000022
:020000040000fa
:040198003e0700001e
:020000040000fa
:04019c003e0700001a
:020000040000fa
:0401a0003e07000016
:020000040000fa
:0401a4003e07000012
:020000040000fa
:0401a8003e0700000e
:020000040000fa
:0401ac003e0700000a
:020000040000fa
:0401b0003e07000006
:020000040000fa
:0401b4003e07000002
:020000040000fa
:0401b8003e070000fe
:020000040000fa
:0401bc002405000016
:020000040000fa
:0401c0003e070000f6
:020000040000fa
:0401c4003e070000f2
:020000040000fa
:0401c8003e070000ee
:020000040000fa
:0401cc003e070000ea
:020000040000fa
:0401d0003e070000e6
:020000040000fa
:0401d4003e070000e2
:020000040000fa
:0401d8003e070000de
:020000040000fa
:0401dc003e070000da
:020000040000fa
:0401e0003e070000d6
:020000040000fa
:0401e4003e070000d2
:020000040000fa
:0401e8003e070000ce
:020000040000fa
:0401ec003e070000ca
:020000040000fa
:0401f00060050000a6
:020000040000fa
:0401f4003e070000c2
:020000040000fa
:0401f8003e070000be
:020000040000fa
:0401fc003e070000ba
:020000040000fa
:040200003e070000b5
:020000040000fa
:040204003e070000b1
:020000040000fa
:040208003e070000ad
:020000040000fa
:04020c003e070000a9
:020000040000fa
:040210003e070000a5
:020000040000fa
:040214003e070000a1
:020000040000fa
:040218003e0700009d
:020000040000fa
:04021c003e07000099
:020000040000fa
:040220003e07000095
:020000040000fa
:040224003e07000091
:020000040000fa
:040228003e0700008d
:020000040000fa
:04022c003e07000089
:020000040000fa
:040230003e07000085
:020000040000fa
:040234003e07000081
:020000040000fa
:040238003e0700007d
:020000040000fa
:04023c003e07000079
:020000040000fa
:040240003e07000075
:020000040000fa
:040244003e07000071
:020000040000fa
:040248003e0700006d
:020000040000fa
:04024c003e07000069
:020000040000fa
:040250003e07000065
:020000040000fa
:040254003e07000061
:020000040000fa
:040258003e0700005d
:020000040000fa
:04025c003e07000059
:020000040000fa
:040260003e07000055
:020000040000fa
:040264003e07000051
:020000040000fa
:040268003e0700004d
:020000040000fa
:04026c003e07000049
:020000040000fa
:040270003e07000045
:020000040000fa
:040274003e07000041
:020000040000fa
:040278003e0700003d
:020000040000fa
:04027c003e07000039
:020000040000fa
:040280003e07000035
:020000040000fa
:040284003e07000031
:020000040000fa
:040288003e0700002d
:020000040000fa
:04028c003e07000029
:020000040000fa
:040290003e07000025
:020000040000fa
:040294003e07000021
:020000040000fa
:040298003e0700001d
:020000040000fa
:04029c003e07000019
:020000040000fa
:0402a0003e07000015
:020000040000fa
:0402a4003e07000011
:020000040000fa
:0402a8003e0700000d
:020000040000fa
:0402ac003e07000009
:020000040000fa
:0402b0003e07000005
:020000040000fa
:0402b4003e07000001
:020000040000fa
:0402b8003e070000fd
:020000040000fa
:0402bc003e070000f9
:020000040000fa
:0402c0003e070000f5
:020000040000fa
:0402c4003e070000f1
:020000040000fa
:0402c8003e070000ed
:020000040000fa
:0402cc003e070000e9
:020000040000fa
:0402d0003e070000e5
:020000040000fa
:0402d4003e070000e1
:020000040000fa
:0402d8003e070000dd
:020000040000fa
:0402dc003e070000d9
:020000040000fa
:0402e0003e070000d5
:020000040000fa
:0402e4003e070000d1
:020000040000fa
:0402e8003e070000cd
:020000040000fa
:0402ec003e070000c9
:020000040000fa
:0402f0003e070000c5
:020000040000fa
:0402f4003e070000c1
:020000040000fa
:0402f8003e070000bd
:020000040000fa
:0402fc003e070000b9
:020000040000fa
:040300003e070000b4
:020000040000fa
:040304003e070000b0
:020000040000fa
:040308003e070000ac
:020000040000fa
:04030c003e070000a8
:020000040000fa
:040310003e070000a4
:020000040000fa
:040314003e070000a0
:020000040000fa
:040318003e0700009c
:020000040000fa
:04031c003e07000098
:020000040000fa
:040320003e07000094
:020000040000fa
:040324003e07000090
:020000040000fa
:040328009c05000030
:020000040000fa
:04032c00d8050000f0
:020000040000fa
:040330003e07000084
:020000040000fa
:040334003e07000080
:020000040000fa
:100400000f8722000eff26000e018800000000006a
:10041000000020000000e000020032000001200087
:100420002002880014000700960207000000e00088
:1004300003003a00605b2500010020000200370045
:100440000000200001002000810f70000100320038
:100450000f000700000020000000e0000200320052
:100460000000020000000000224b0200000000001b
:100470000040da000000fe00e04020000000e00044
:1004800002003200002020009001880000000600d9
:10049000a1028800800478000000eb001f003700f4
:1004a000e284440054a0b4009905ba00e2844400f8
:1004b00054a0b4009906ba00e284440054a0b400e9
:1004c0000006eb00476fde00fd07b200ae018800ba
:1004d000636ce10003003a000ad801000000eb0061
:1004e0000e003700606ce10008003a00004deb00a0
:1004f0000a05e800020039003420ec000af0a000f0
:100500008b05e900f9ff3e00040037006168e10057
:10051000010032000086eb000b00070019c7ba008b
:100520001905ba000e04e00003003a000a00e000da
:10053000dbff3a0000000600fe07b200ae028800b2
:100540008a047800f5ff37000cd0a300e20f4d00bd
:100550001c003b0089027800354dba000a05e8000e
:10056000020039003420ec000af0a0008b05e900fd
:100570000f003200254dba000a05e80002003900dc
:100580003420ec000af0a0008b05e90008003200de
:100590000c00e0000600320015cdba000a05e800a4
:1005a000020039003420ec000af0a0008b05e900bd
:1005b0008984e80054a0b4000b00e000e2ff3a0098
:1005c000000006009902ba00055d78008b05e9007d
:1005d000f7ff3200c82ade00055d78008b05e900d0
:1005e000f3ff32000c00e000f1ff320019ddba0029
:1005f000eeff37003a51040000000000785b040071
:10060000000000009451040000000000ae510400fe
:1006100000000000ea510400000000002252040023
:10062000000000005c52040000000000685204005a
:10063000000000008e52040000000000725204000e
:1006400000000000bc5a040000000000a85a04008a
:1006500000000000905a040000000000845a0400ca
:1006600000000000c44b0400000000009c4804008f
:1006700000000000ce480400000000000249040011
:100680000000000016490400000000004a49040070
:10069000000000007c49040000000000b049040094
:1006a00000000000c449040000000000d849040014
:1006b000000000009050040000000000965004006c
:1006c000000000009c50040000000000a250040044
:1006d00000000000a850040000000000504b04007f
:1006e00000000000564b040000000000f04b040026
:1006f000000000003c370400000000005e370400ea
:10070000000000008637040000000000ae3704003f
:1007100000000000dc370400000000000a3804007c
:1007200000000000383804000000000020370400fa
:10073000000000005e4a040000000000764a040049
:1007400000000000944a040000000000b4580400b7
:1007500000000000ba58040000000000be58040069
:1007600000000000c2580400000000004e5b0400be
:1007700000000000505b040000000000525b040019
:1007800000000000545b040000000000565b040001
:1007900000000000585b04000000000070380400f6
:1007a000000000007e38040000000000103d04003e
:1007b00000000000703c040000000000283a040023
:1007c00000000000923b0400000000004e240400e2
:1007d00000000000e623040000000000de26040004
:1007e0000000000092270400000000001c2d0400ff
:1007f000000000008c450400000000009644040046
:1008000000000000084504000000000054460400f9
:1008100000000000683d0400000000005e3d040090
:10082000000000003600f800809fbe00829fbe00de
:10083000849fbe00869fbe000000fa00c028a90069
:100840000000eb00c72b07000080fa004f03be003a
:100850004f02be004f01be004f00be003600f9003f
:10086000004006003600f800809fbe00829fbe0058
:10087000849fbe00869fbe000000fa00be2b0700ca
:10088000c048a90010002000b62b07000080fa0025
:100890004f03be004f02be004f01be004f00be001e
:1008a0003600f900004006003600f800809fbe00c8
:1008b000829fbe00849fbe00869fbe000000fa009b
:1008c000c068a90020002000a62b07000080fa00c5
:1008d0004f03be004f02be004f01be004f00be00de
:1008e0003600f900004006003600f800809fbe0088
:1008f000829fbe00849fbe00869fbe000000fa005b
:10090000c088a90030002000962b07000080fa0064
:100910004f03be004f02be004f01be004f00be009d
:100920003600f900004006003600f800809fbe0047
:10093000829fbe00849fbe00869fbe000000fa001a
:10094000c608a90070002000862b07000080fa006e
:100950004f03be004f02be004f01be004f00be005d
:100960003600f900004006003600f800809fbe0007
:10097000829fbe00849fbe00869fbe000000fa00da
:100980002146800000102000008060000000e00090
:1009900003003200c508a900c0002000712b070029
:1009a00020468000700060000000e000030032007c
:1009b000c488a900a00020006a2b07002046800000
:1009c000610060000000e00003003200c408a900dc
:1009d000b0002000632b0700ffff37003600f8004f
:1009e000809fbe00829fbe00849fbe00869fbe0087
:1009f0003200f8003400f80010002000a001880048
:100a00000020200000d0fe000000fa0000808000de
:100a10000000e000020032000080800000000100c1
:100a20000b48a9000080fa003400f9003200f900f8
:100a30004f03be004f02be004f01be004f00be007c
:100a40003600f900004006003600f800809fbe0026
:100a5000829fbe00849fbe00869fbe003200f800c9
:100a60003400f80010002000a001880000202000c1
:100a700000d0fe000200fa0001618000010f780042
:100a8000308080000000e0000300320031808000f0
:100a90001e007800010001000ca8a9000080fa00e7
:100aa0003400f9003200f9004f03be004f02be00cf
:100ab0004f01be004f00be003600f90000400600a6
:100ac0003600f800809fbe00829fbe00849fbe005b
:100ad000869fbe003200f8003400f80010002000ad
:100ae000a00188000020200000d0fe000200fa00d3
:100af000d1618000010f7800708080000000e0006c
:100b000003003200718080001e00780001000100a7
:100b10000e48a9000080fa003400f9003200f90004
:100b20004f03be004f02be004f01be004f00be008b
:100b30003600f900004006003600f800809fbe0035
:100b4000829fbe00849fbe00869fbe003200f800d8
:100b50003400f80010002000a001880000202000d0
:100b600000d0fe000200fa00e1618000010f780071
:100b7000808080000000e00003003200818080005f
:100b80001e007800010001001808a9000080fa008a
:100b90003400f9003200f9004f03be004f02be00de
:100ba0004f01be004f00be003600f90000400600b5
:100bb0003600f800809fbe00829fbe00849fbe006a
:100bc000869fbe003200f8003400f80010002000bc
:100bd000a00188000020200000d0fe000200fa00e2
:100be000f1618000010f7800908080000000e0003b
:100bf00003003200918080001e0078000100010097
:100c00001828a9000080fa003400f9003200f90029
:100c10004f03be004f02be004f01be004f00be009a
:100c20003600f900004006003600f800809fbe0044
:100c3000829fbe00849fbe00869fbe000000fa0017
:100c40004140800000002100008060000000e000c2
:100c50003700320030748000700060000000e00057
:100c600006003200208180000000e0000200320017
:100c70002081800000000100868ea9003174800070
:100c800000082000008060000000e0000600320044
:100c9000308180000000e0000200320030818000de
:100ca0000000010086eea9003174800000202000c1
:100cb000008060000000e0000600320040818000fb
:100cc0000000e000020032004081800000000100ce
:100cd000872ea90031748000001020000080600081
:100ce0000000e00006003200508180000000e000bb
:100cf000020032005081800000000100870ea90030
:100d00003174800000002100008060000000e000dd
:100d100006003200608180000000e0000200320026
:100d20006081800000000100878ea9000988a90069
:100d30000080fa004f03be004f02be004f01be000c
:100d40004f00be003600f900004006003600f800f3
:100d5000809fbe00829fbe00849fbe00869fbe0013
:100d60000000fa00708280000000e80070828800b5
:100d700070828000e20f5000060036006082800022
:100d80000000e000020032006082800000000100ec
:100d90004e30ef00d0862200104078008040e800fe
:100da000d086220001487800c086220011c0b3001e
:100db000014878000028a9000080fa004f03be0017
:100dc0004f02be004f01be004f00be003600f900ca
:100dd000004006003600f800809fbe00829fbe00e3
:100de000849fbe00869fbe000000fa0090828000b3
:100df0000000e0000200320090828000000001004c
:100e00000868a9000080fa004f03be004f02be0030
:100e10004f01be004f00be003600f9000040060042
:100e20003600f800809fbe00829fbe00849fbe00f7
:100e3000869fbe000000fa000140800000082000ec
:100e4000008060000000e000050032008086220083
:100e500011c0b30001487800ee21070000e8a900a6
:100e60000080fa004f03be004f02be004f01be00db
:100e70004f00be003600f900004006000040da00d6
:100e80000000fe00000005008f1fd1000c000700cd
:100e90008f87e9000000e00000000600809feb0063
:100ea000070007008f87e9000000e000000006004f
:100eb000140020003d003700f4ff2f003b003700f6
:100ec000889fbe008a9fbe008c9fbe000404be00a7
:100ed0000605be00809fbe00829fbe002100070065
:100ee000040678000800be000a01be001d000700cd
:100ef000840678004f03be004f02be008d4f76007f
:100f00007fb0970013003300f0ff2f008b8f6b0032
:100f100006003b000d0666000c00a7000a00370023
:100f200007f0a600100020000a003700880f5200ca
:100f3000898f5a008a0f5b008b8f5b00030039009a
:100f40001000200001003e000000200007f0a70074
:100f50000000ea004f06be004f05be004f04be0071
:100f60000000060005ff270005826100070032002f
:100f70000428e100010032002400050006000700fb
:100f800001003a00440005000408050002000700c3
:100f9000f9ff3a00140005006f82610081027000c1
:100fa000850271008502720000000600889fbe0065
:100fb0008a9fbe00841f7800170007004f0078004a
:100fc00011003300f0ff2f00838f6c0006003b0000
:100fd000040565000a00a7000800370009f0a60014
:100fe0001000200008003700820f5400838f5c003f
:100ff000030039001000200001003e000000200026
:1010000009f0a7000000ea004f05be004f04be0033
:101010000000e000000006000004be00060007001b
:101020000003be000405be000200be00020007006f
:10103000844f750000000600c70ade00f107b20009
:10104000f50fb20008003200e1cf4200020032008a
:101050000170a00024000500810f70000100320023
:101060000408050044000500810f700002003a00ea
:10107000140005008502e9000000400081c048001e
:10108000fcff3b000170a000240005000000fa00f6
:10109000cfb8970068815700aa0207000080fa00c5
:1010a0000000060001003700000006008f04b000b9
:1010b000889fbe008a9fbe008c9fbe008e1f780056
:1010c000809f9f00f19f9f00c3779f0001007800e1
:1010d000b0007800e1a79f0010007800d0b79f0013
:1010e000ff999700a3019000d3a79f007f9a9700d4
:1010f00044029000f4979f00ff9a9700b506900075
:101100003204be002205be006022b8006033b80081
:101110000800be000a01be005bff07000000e000ff
:1011200003003d000bf0a200d0c2b3000400370062
:101130006fa397000628a30008003200b0c2b300d6
:10114000804e7800dfa397008703e900c7af9f00b8
:1011500010002000f0a79f000f003700efa09700bd
:101160000138a3000800320000c2b300804e7800ae
:101170005fa197000201e900c2af9f0013002000a9
:10118000f3a79f00040037005fa29700c4af9f0041
:101190008002eb00f5a79f000800be000a01be0018
:1011a000c1ff0700f4ff2f00f5ff2f00f6ff2f000f
:1011b000f7ff2700040260008582600006036100db
:1011c000878361006000b8000200200003ff270051
:1011d0000020e10001a8e10002b0e10003b8e10055
:1011e00010003a004f7397008600fb001104b10015
:1011f000ffa3970007804600f98f500002003e00d1
:1012000001852200010037004185220020050700ea
:1012100040852200a3040700ffa0970001014000c1
:10122000140037000020e10001a8e10002b0e10055
:1012300003b8e100120036004f7197008200fb00f6
:101240001104b100ffa1970003804600f98f500000
:1012500002003e008185220001003700c185220086
:101260000b050700c08522008e0407007fa29700af
:10127000040140006fa29700dfa197001d02370014
:101280006022b8006033b8000800be000a01be004a
:10129000fdfe07000000e000680032006000b800ba
:1012a0000200200003ff230080af9f0091af9f004a
:1012b000a2af9f00b3af9f000007eb000802be0083
:1012c0000a03be00d4af9f00e5af9f00f6af9f00ba
:1012d00087b79f00070037000e07e8000800be0030
:1012e0000a01be0080af9f0091af9f00a2af9f0098
:1012f000b3af9f006022b800060020004702240020
:101300000fa897009fa897002fa99700bfa9970043
:10131000100707000004be000205be000002be0068
:101320000203be005fa89700efa897007fa997006f
:101330008fb19700d4fe07000000e000e6ff3d00fb
:101340000006eb000fac97009fac97002fad970005
:10135000bfad97002500370040ed2f00800f5700ec
:1013600019003d000c00e00016003a006022b800b1
:1013700006002000073524005fa89700efa897001b
:101380007fa997008fb19700f20607000002be0008
:101390000203be00d4af9f00e5af9f00f6af9f00f1
:1013a00087b79f006022b8000600200007352400a0
:1013b0000800be000a01be00e60607000004be00e9
:1013c0000205be001c0020006022b80006002000bc
:1013d000470224000800be000a01be002e060700d6
:1013e0000004be000205be000e07e9000802be00b0
:1013f0000a03be005fa89700efa897007fa9970097
:101400008fb19700a0fe07000000e000d2ff35007a
:101410000800be000a01be0080af9f0091af9f0090
:10142000a2af9f00b3af9f005fac9700efac9700f7
:101430007fad97008fb59700080037006022b80095
:101440000600200007ff230084af9f0095af9f0098
:10145000a6af9f00b7af9f000007eb00cf729700c9
:101460000500fb0091040700d0779f005fb3970051
:10147000600020000600e000010035005fb097002a
:1014800071c6b300df73970081cf53000a003a00a2
:10149000dfb097000100e0009f0132009f0137009c
:1014a0008e0f5000a3013c00d0af9f0052c6b30086
:1014b00082cf9f001e003700df71970083cf9f000f
:1014c0000200370064c6b30084cf9f000000e8002c
:1014d000d0af9f0060c6b3008fca970080cf520084
:1014e00013003a000e00e00008003d006000b80064
:1014f0000200200003ff230080af9f0091af9f00f8
:10150000a2af9f00b3af9f000007eb0061c6b3001e
:1015100081cf9f0070c6b3005f719700804f51006c
:1015200003003200dfa997008e814100d3af9f00f6
:101530000faa97009faa97002fab9700bfab970009
:1015400094b79f00a5b79f00b6b79f00c7b79f008d
:101550000800be000a01be00d0b79f00e1b79f009f
:10156000f2b79f0083bf9f000006eb000802be0099
:101570000a03be00b49f9f00c59f9f00d69f9f0097
:10158000e79f9f00310037001fb29700afb297006e
:101590003fb39700cfb397005fb09700efb09700cd
:1015a0007fb197008fb99700bb050700d8070700e8
:1015b0000004be000205be0034050700800278006a
:1015c00085a79f001fb29700afb297003fb3970067
:1015d000cfb397000800be000a01be005d060700f9
:1015e0005fb29700efb297007fb397008fbb970071
:1015f000580507000002be000203be0007f0a2006b
:10160000d4b79f00e5b79f00f6b79f0087bf9f0044
:101610006022b80006002000470224001fb0970097
:10162000afb097003fb19700cfb197009a05070080
:101630000002be000203be0094b79f00a5b79f0042
:10164000b6b79f00c7b79f000c06e800dfaa970057
:10165000850f5600ccff35003f9c9700cf9c97002c
:101660005f9d9700ef9d97006022b8000600200064
:10167000470124001fb09700afb097003fb197001b
:10168000cfb19700330607000002be000203be0080
:1016900094b79f00a5b79f00b6b79f00c7b79f003c
:1016a0005fb09700efb097007fb197008fb99700b8
:1016b000f5fd07000000e0000f0035001fb29700a5
:1016c000afb297003fb39700cfb397005fb09700da
:1016d000efb097007fb197008fb99700eafd070040
:1016e0000000e00011003a008fa297000508a30057
:1016f000080032000d0037006000b8006011b8002b
:1017000090b79f00a1b79f00b2b79f00c3b79f00db
:10171000060037006022b8006033b80094b79f001d
:10172000a5b79f00b6b79f00c7b79f001fb297002d
:10173000afb297003fb39700cfb397000800be0049
:101740000a01be00090507000002be000203be0038
:1017500084a79f0095a79f00a6a79f00b7a79f00fb
:1017600050c6b3008fca970080cf520003003a00e2
:101770000003eb00d6b79f0001003700deb79f00e3
:101780007fa697000000eb0090b79f00909f9f00fe
:10179000b09f9f008e007800e1979f0067003700a0
:1017a0000faa97009faa97002fab9700bfab970097
:1017b0000fa097009fa097002fa19700bfa19700af
:1017c00035050700520707000004be000205be00f1
:1017d000ae04070000017800efa197000348a300c2
:1017e0000c003a000200e0000a003a0070c6b300a4
:1017f0005f729700804f520006003a00dfb29700f8
:101800000500e00003003d001fb397000607e80055
:10181000210037009f9b97000700e0000c003a0072
:101820005fb097000000e00009003d008c8046009a
:10183000e0c2b300804878000c06e800cfa897000b
:101840008100e900c1af9f0013002000939f9f001b
:101850008c8046001fb797000300370000c3b30019
:10186000805878000e07e9000e00e000fbff3a0008
:101870001fb29700040646000c80460005c3b30063
:10188000054841000c06e8000480ea004fab9700d1
:1018900000034300c6af9f000faa97009faa9700be
:1018a0002fab9700bfab97000800be000a01be0037
:1018b000a80507000fa297009fa297002fa39700eb
:1018c000bfa39700a30407000002be000203be00ee
:1018d00007f0a20084a79f0095a79f00a6a79f00de
:1018e000b7a79f006022b80006002000470224002e
:1018f0000fa897009fa897002fa99700bfa997004e
:10190000e50407000002be000203be0084af9f0092
:1019100095af9f00a6af9f00b7af9f00dfb29700c3
:101920008502e900d5b79f003f9b97000603e800ba
:10193000b69f9f008e03780097b79f003f9897004f
:10194000dfa89700810f500005003d007f999700a8
:101950004200900065005000800f560090ff390053
:101960006f9797009f9997000300e00007003a00e7
:101970006fa297000448a300040032000c804600c8
:10198000e1c2b300014878000c06e8000c80460074
:101990000048eb0051c6b3008fca970081cf5200b8
:1019a00036003a007f9397008600e90001814600e7
:1019b0000049eb008001eb000e00e00002003d005a
:1019c0000e07ea00130020002200200081037800a7
:1019d000cfaa9700000478000b003700810378003d
:1019e00007834600a4002000050009000407d80072
:1019f000010278000007780000c3b300004b4200ea
:101a00000201e9008502e9008700e9000e00e0001c
:101a1000f2ff3a000200e000f0ff3c00c5af9f007b
:101a20000800780001824600b2c2b3000300e00063
:101a300001003200d2c2b300024a78000101e9007d
:101a400082804600cf7197000302fb001404b100ae
:101a500053c6b300f90f520001003e0053c4b30057
:101a6000834878004faa97000482e900c4af9f0022
:101a7000820f56000100310005030700efa2970016
:101a800063806200e20f500015003a004fab9700f0
:101a90000600e000120034000d007800810207000b
:101aa00006003700cfab970087804600808040005b
:101ab00000814600924878000000e900ffa09700ee
:101ac000810f5000f7ff3100018046004fa99700b9
:101ad00001032000100207000001eb00d2a79f00c5
:101ae0000d0078006f0207006fa29700dfa197003a
:101af000000178008d0078000f98970029000700fa
:101b00004f0778004f06be004f05be004f04be00d1
:101b10008f04b1000000060010002000e40f470011
:101b20005ffe3d00d0af9f0053c6b30083cf9f0040
:101b30007ffe37000e00e00062fe3500d0af9f0050
:101b400072fe37008201780001017800f1ff270062
:101b50006c023700889fbe008a1f780080047800de
:101b60004900900002047800800f54000100360004
:101b700000047800080178006a8544001a007800a3
:101b8000de0107001a004400000d7800e8844400dc
:101b9000990c14000048eb004f0578004f04be007c
:101ba00000000600f2874700889fbe008a9fbe00a3
:101bb0008c9fbe008e1f780080047800010578009d
:101bc00002047800830578006107620002003a0091
:101bd0008b0f540008003900080178008a00780053
:101be00009007800dbff07008b0f5400020039006a
:101bf000880578001e003700088655000c01780023
:101c0000f00f560001003600020120000102200002
:101c10007e805700c00107008c0678000500370061
:101c200002012000fe80570009007800c9ff07006c
:101c3000f0865600ef8f5600f9ff3e004461de004b
:101c400000ff2f008091b9000c014100fe80570079
:101c500009007800bfff07000e00e00004003a0012
:101c6000080178008a00780009007800b9ff0700b1
:101c70000b0078004f0778004f06be004f05be00ee
:101c80004f04be002f01b100000006000000050057
:101c90000000050000000500000178000040eb0096
:101ca0008080fb0081804000a3832200818141006d
:101cb000134278000404e00004003a00b0832200dc
:101cc0008100400011407800000006009201780079
:101cd000934f520005003a00b0832200810040007b
:101ce000114078000309e800010037000040e800d7
:101cf000ea4f5000eaff360000000600f687470072
:101d0000889fbe008a9fbe008c9fbe008e1f7800f9
:101d100080047800010478008305780004067800c8
:101d20000000eb00c0b79f008080eb00d1b79f00a0
:101d3000e0b79f00f2b79f000008200080bf9f001f
:101d400098007800010078000005eb0001003700e2
:101d50000a05e800304178000204e0000300320088
:101d600053c2b300834f5100f9ff3a000a00e0006c
:101d7000040032000a0178000900780075ff0700ae
:101d8000180c45001807780050c2b3009e4f100091
:101d900033013a000e07e8000e0c780010003700ff
:101da000cfb097000100a0000b003700cfb0970024
:101db0000110a00008003700cfb097000120a0005c
:101dc00005003700cfb097000130a00002003700b7
:101dd000cfb097000140a000c1b79f00000ce80001
:101de0001800780090407800b2c2b30082cf500053
:101df000f1ff320007003c0002c2b30082cf500066
:101e0000f0ff320032c2b30082cf500007003a0028
:101e1000efff3700d2c2b30082cf5000e0ff3200a4
:101e200002c3b30082cf5000e0ff3200a2c2b30071
:101e300082cf50000d003a00000ce8001c80e90041
:101e4000000e780010007800e0b79f000000e0006e
:101e50000f003d00cfb097000100a200c1b79f0066
:101e60000000ea00e0b79f0009003700e201070028
:101e7000e0b79f0001003700000ce8001800780070
:101e80009000fb000103b100e98f5000faff36001b
:101e90004fb097000008a300020032000010a1001c
:101ea000c0b79f0018007800e1c2b30090cf1000c7
:101eb00016003a008000eb00d1b79f000000e80058
:101ec000000c7800a1c2b30090cf100006003a00c9
:101ed000000ce8001c80e900000e7800100078007b
:101ee000d0b79f0009003700c3010700d0b79f009b
:101ef00001003700000ce800180078009000fb009b
:101f00000103b100e98f5000faff360008007800a5
:101f100061ff070080467800180078001000fb0081
:101f2000e201070091062000810f500038003200c6
:101f300012003c0041062000810f500034003200a6
:101f40000a003c0011062000810f500020003200e2
:101f500031062000810f50009a003200510220000b
:101f6000810f5000ae003a00a70037007106200034
:101f7000810f5000aa003c008200370001072000ba
:101f8000810f50005c00320007003c00e106200099
:101f9000810f500074003200f1062000810f5000c4
:101fa0009f003a003900370051072000810f500090
:101fb0002700320081072000810f500042003200cc
:101fc00031072000810f500095003a00850037004e
:101fd0008d80fb000c01780000fe2f000f004000f8
:101fe000b90107000000e0009c00320018007800f2
:101ff000000ce8009041780002fe2f000f01410024
:10200000f88057000900780021ff07000e00370014
:102010008d80fb008c0178001200200000fe2f0054
:102020000f004000c70107000000e0008b003200f5
:10203000180ce80002fe2f000f014100f880570045
:102040000900780011ff07000005450084003700f3
:102050008d80fb008c0178000001eb0000fe2f005a
:102060000f004000b70107000000e0007b003200d5
:10207000180ce80002fe2f000f014100f880570005
:102080000900780001ff0700efff37008d80fb009b
:102090008c0178000001eb0000fe2f000f004000d3
:1020a000a80107000000e0006c003200180ce800f6
:1020b00002fe2f000f014100f88057000900780050
:1020c000f2fe0700e0ff37008d80fb008c017800f6
:1020d0000001eb0000fe2f000f00400099010700f7
:1020e0000000e0005d00320018007800000ce800fd
:1020f00090417800160037008c0178000001eb0059
:10210000010f200000fe2f000f0040008d0107008e
:102110000000e00051003200180ce8000fb09700fa
:102120009fb097002fb19700bfb19700e00f50000c
:10213000e08f5800e00f5900e08f590003003a008b
:102140008001eb00428322004000370083c7b300c8
:1021500002fe2f000f014100f880570009007800af
:10216000cbfe0700b8ff37000b0145008d80fb0058
:102170008c01780000fe2f000f004000ca0107000c
:10218000360037008d80fb000c01780000fe2f0028
:102190000f0040004c0107000000e0002f0032005b
:1021a00018007800000ce8009041780002fe2f0033
:1021b0000f014100f880570009007800bbfb0700c1
:1021c000a1ff370000c8b30080cf560023003a00bb
:1021d000180ce8001c80e900000e78001040780020
:1021e0000d00370000c8b30080cf56001b003a0036
:1021f000180ce8001c80e900000e78008001eb005c
:10220000100178001100370001c8b30081cf5600db
:1022100012003a00180ce800e0df9f0008003700c9
:1022200050c2b300e0df9f000e0c78000000eb000e
:10223000c0b79f00e0b79f008080eb00d1b79f0040
:1022400013002000e2fd2f000f014100f88057002d
:10225000090078008ffe07007bff3700180ce800ac
:102260000a0078004f0778004f06be004f05be00f9
:102270004f04be006f01b100000006008200fa00aa
:10228000889fbe008a1f78000005780082047800cd
:10229000c13f9f000004eb001000370009027800e6
:1022a00088017800a2f72f000f01410081f72f006d
:1022b0008f8040000a00780090fe07000800400070
:1022c000880f500004003d00b004200070438900d6
:1022d0000084eb0004003700000478004f389700ba
:1022e0001004e000edff3a00080078004f05780088
:1022f0004f04be000080fa00000006008001780054
:1023000002003700b15978000201e9000200e00044
:10231000fcff3a0000000600889fbe008a9fbe00b6
:10232000800478000200e0005a003200014078008a
:10233000814c780082814400f1f99f00e20f510046
:102340005400360091449800a1449800e1f99f00a0
:10235000d1f99f00e60f51004e003600b1449800bd
:10236000c1f99f00e80f51004a0036000905ea0054
:10237000630565000a8444000a055100c1ff2f006f
:10238000010565000080fb008000eb0012102000ba
:1023900013102000e9010700008cbe000a01440070
:1023a00060b99f0071b99f00e80f550039003600f1
:1023b00020049800310498004004980051049800cb
:1023c00020b99f0031b99f0040b99f0051b99f00cb
:1023d000f80f55002f003600600498007104980033
:1023e000000c9800110c9800200c9800310c9800fb
:1023f000400c9800510c980020b19f0031b19f0013
:1024000040b19f0051b19f0060b19f0071b19f002a
:1024100000b99f0011b99f00640164007801410078
:1024200002044400020555006011b8000203be001a
:102430000002be000403be006022b800000072006b
:102440008180720002017300838173000f003700e6
:1024500008027800009abe00029abe00009abe00f0
:102460000292be00000c9800110c9800220c9800fb
:10247000330c9800400c9800510c9800620c9800a6
:10248000730c98000a02b1000802b000ff0f55005b
:10249000efff3e00090078004f05be004f04be006c
:1024a0000000060080007800040037003104e000de
:1024b00002003a000000510000000600010178000f
:1024c0000108a300f9ff3a0081017800310178008a
:1024d000f4ef2f00020242000281ea0002016200d2
:1024e0000408280004016100f7ff3200830078002f
:1024f000010178003104e000fdff3a0000005100c6
:1025000000000600f28747008e1f78000202780064
:10251000030178000000e0000200320000077800ac
:1025200001003700728757008002eb000100e000d5
:10253000010032008102e9007080570006000900a6
:102540000018eb007280570000a8eb002310200059
:1025500093bf9f00aebf9f00b1bf9f00c5bf9f004c
:102560000100e00004003d00b00420007043890039
:102570000080eb0005003700004feb00eebf9f002e
:10258000debf9f0084007800030007004f0778003b
:102590002f01b100000006000200fa00881f780039
:1025a00000047800e2bf9f006481570008007800b3
:1025b00032ff0700980090000148a300010032009c
:1025c0000080eb004f0478000080fa000000060055
:1025d000800078001000200002022000828f50004e
:1025e00004003200e9805000e48f50000100360002
:1025f0000000eb0000000600889fbe008a1f7800e4
:10260000800478000904780088047800394578004f
:102610000a00fb00eeff07000000e000f9ff3a00af
:10262000b0c2b300804f550005003200d0c2b300e5
:102630008000eb00804f550005003a000200370093
:102640008000eb0001003700110020000804e800c2
:102650000000eb0003003700ea00b9000200500060
:102660000003b0003801fb0003fd2f008281410010
:10267000e98f5100f8ff36000100e00001003a0048
:102680000000ea004f0578004f04be00000006007d
:10269000881f78000004780008007800bc0007005c
:1026a000080078004f04780000000600f1fb2f00be
:1026b00080804000f98f500001003e000050a000d3
:1026c00000000600f9ff3700881f7800000478003a
:1026d00000082000808f50001700350010082000ef
:1026e000808f50000b00340030082000808f500095
:1026f00011003a00920078006880500000097800cc
:102700003002be002003be00049cbe000694be0042
:1027100007003700920278006480520000097800b8
:102720001000be00ba000700009cbe000294be006c
:1027300010002000010037000000eb004f0478007b
:102740000000060084082000848f50001d00320025
:102750000d003c0014082000848f50002700320038
:1027600002003c0004082000040037002408200078
:10277000848f50002a00320044082000848f5000cb
:1027800048003a003b003700040a2000848f5000c4
:102790002c00320004003c0004092000848f50000b
:1027a00040003a002d003700020c2000828f5000bc
:1027b0001e003200020f2000828f500039003a00c4
:1027c000300037009380e9000200e000050032008d
:1027d000810978001102fb00cfa2de00612bb90055
:1027e0002d00370081097800114278000482fb0037
:1027f0008002eb006033b800270037001302780036
:10280000e40052000200e0000a0032008109780072
:102810001102be004fabde00860378001e003700b9
:1028200093027800e88052000e003700930278008f
:10283000e4805200810978001102be006033b800c4
:10284000150037009380e9008109780011027800b3
:10285000cfa2de00612bb9000f0037001303780010
:10286000e8005300810978003102be002103be0058
:10287000090037009380e9000200e0000200320006
:10288000f1ff37009380e900810978001102780098
:102890008002eb006033b8000498be000690be00d2
:1028a000100005000000050044082000848f50003f
:1028b000270032000a003c0014082000848f5000da
:1028c0001c00320024082000848f500026003200b3
:1028d00004082000848f50002c003a001c003700b0
:1028e00004092000848f50001f00320004003c00c7
:1028f00084082000848f500024003a00070037002d
:10290000040a2000848f500011003200040c2000c3
:10291000848f50001d003a00060037009380e900c4
:1029200081097800910078000108780082487800d9
:10293000150037009380e900810978009100780044
:1029400001087800cf91de008288be000e003700bb
:102950009380e900810978009100780001087800ef
:1029600082087800080037009380e9008109780028
:1029700091007800010878006112b900612bb9005c
:102980008498be008690be0010000500000005007f
:102990000101780080017800008268000408a3002b
:1029a000050032001300370032407800805978006b
:1029b0000004e00014003200030278000208a300c3
:1029c000f9ff3a000300780001003700031878008f
:1029d00082007800b2017800f5ef2f008382420078
:1029e0000382ea00048262000508280005026200f2
:1029f000f6ff32000002780031417800025878007a
:102a00000204e000fbff3a0004007800000006002a
:102a10008103780088f907000001be006000b8005b
:102a20000478a30013003a006220e10015003e0084
:102a30000d0039008301d1000281d3008180d300d1
:102a40008301d1000281d3008180d3008301d100b2
:102a50000281d3008180d3000538b000c42add0094
:102a6000f300b2008381720007f0a70003f0a0001a
:102a70000000060083ff2700020020006110b9005b
:102a8000f9ff370003ff2700f7ff37001400fa00b3
:102a9000889fbe008a9fbe008c9fbe000004be00bf
:102aa0000205be00680047000a90be000890be0004
:102ab000490207000070a7000bf0a100304320007e
:102ac0009e02900080825200b0fe2f000028e1009c
:102ad00011003d00b0fc2f000028e100150034007b
:102ae0001e0990008e0890007e0090000501b00045
:102af0000201d1008180d3000080d3008502e8006c
:102b0000fbff3a000b00e0006e023b00600010008b
:102b1000e08018006b023700f0ff2f00f1ff270064
:102b20000b00e00067023b000100280000002000cd
:102b3000640237006000b80062023700020ab90080
:102b4000001bb9000200b800810042008100430070
:102b5000000006008c9fbe008a9fbe00889fbe00ba
:102b6000ca0107000bf0a200040037008c9fbe00d2
:102b70008a9fbe00889fbe00c40107000c48e10088
:102b80000b003a000c40e100020032008b0107000c
:102b9000400037008b066d003e0032000af0a100b5
:102ba000f3012000f2ff2f006110b9003900370057
:102bb0000c40e100370032000940e100010036001e
:102bc0007e0107008a856d00cf5dde000b05750074
:102bd0000006eb008804fd00890454000100320067
:102be0007d0107000a04e00011003a000800e0003f
:102bf000280032000400400085804800060149009a
:102c0000878149000358a300180032008301d100d6
:102c10000281d3008180d3000080d3000c86d300d2
:102c200001003900610676000804e800180037004a
:102c30000400500085805800060159008781590022
:102c4000060031000af0a2000c06ea00600018003d
:102c5000e080180060011900e081190003003a00cb
:102c60000004eb000005eb000a0037000348a30056
:102c700007003a000c06460000004800818048002a
:102c800002014900838149000804e900f7ff370089
:102c9000af013700c90137008c9fbe008a9fbe007c
:102ca000889fbe00790107000b056d000940e10017
:102cb0000a003a000800e000020032000c40e10087
:102cc00006003a000af0a1000c047800f30120008d
:102cd000f2ff2f006110b9009d0037000c40e100a9
:102ce0009b0032000800e000990032000c48e1002f
:102cf00002003a000004eb00030037000900e00086
:102d000004003a000c0478006000b8006011b800bc
:102d10008f0037000348a30006003a00000040007f
:102d20008180480002014900838149000804e900cc
:102d3000f8ff37000748a30006003a0004024200eb
:102d400085824a0006034b0087834b008904e90013
:102d5000f8ff3700fd3f20008d8454000904540023
:102d60008a1f7800881f78000004780081047800aa
:102d700002057800830578006000b8006011b80093
:102d80000d042000050037000804440089844c002d
:102d90000a054d008b854d000800310004045400e5
:102da00085845c0006055d0087855d008381d20017
:102db0008d06d300f4ff3b000700370004044400f5
:102dc00085844c0006054d0087854d008381d20027
:102dd0008d06d300ecff3b000804440089844c00be
:102de0000a054d008b854d00080031000404540095
:102df00085845c0006055d0087855d000281d20048
:102e00008d06d300f4ff3b000700370004044400a4
:102e100085844c0006054d0087854d000281d20057
:102e20008d06d300ecff3b000804440089844c006d
:102e30000a054d008b854d00080031000404540044
:102e400085845c0006055d0087855d008180d20079
:102e50008d06d300f4ff3b00070037000404440054
:102e600085844c0006054d0087854d008180d20089
:102e70008d06d300ecff3b000804440089844c001d
:102e80000a054d008b854d000800310004045400f4
:102e900085845c0006055d0087855d000080d200aa
:102ea0008d06d300f4ff3b00070037000404440004
:102eb00085844c0006054d0087854d000080d200ba
:102ec0008d06d300ecff3b000b00e00004003d004a
:102ed0000404440085844c0006054d0087854d00a0
:102ee0000006eb008301d1000281d3008180d30072
:102ef0000080d3000c86d3008301d1000281d3006f
:102f00008180d3000080d3000c86d3008904740034
:102f10008b0575008b847400010032006106760019
:102f20004f0478004f0578000348a30007003a00db
:102f30000c0646000000480081804800020149005c
:102f4000838149000804e900f7ff370000013700da
:102f50001a0137008c9fbe008a9fbe00889fbe006a
:102f6000ca0007000b056d008a0578000c40e100df
:102f700008003a000900e00082003a000af0a100cf
:102f80000c047800f3012000f2ff2f006110b9005b
:102f90007c0037000c48e10004003a00870007007d
:102fa0000900e00077003a00f4ff37000800e00075
:102fb000740032000900e00002003a007f000700c0
:102fc00070003700ed3f20008d8454000904440058
:102fd0008a1f7800881f7800871f7800861f780076
:102fe000851f7800841f7800cb19dd00c515de0031
:102ff0008b8571004b11dd00450dde000a05710067
:10300000cb08dd00c504de00898470004b04dd00c0
:103010000440b8000546b8008c80400060814e0036
:10302000044eb8008c8040000d0149008001eb0087
:103030000318ad000456b8000c0141008d81490011
:103040000002eb000420ad000646b8000c01410070
:103050008d81490060024a00054eb8000c01410014
:103060008d81490060024a000556b8008c814100fc
:103070000d024a008002eb000528ad000746b800ab
:103080008c8141000d024a00e0824a00064eb800e1
:103090008c8141000d024a00e0824a004f06780010
:1030a0000c5eb8008c8141000d024a00e0824a00ab
:1030b0000656b8000c0242008d824a000003eb0065
:1030c0000630ad00074eb8000c0242008d824a0067
:1030d00060034b004f0678000c5eb8000c02420003
:1030e0008d824a0060034b000756b8008c82420074
:1030f0000d034b008003eb000738ad004f0678004e
:103100000c5eb8008c8242000d034b00e0834b0044
:103110004f0678000c5eb8000c0343008d834b0013
:103120004f0478004f0578000748a3000a003a00d2
:10313000000040008180480002014900838149006d
:1031400004024a0085824a0006034b0087834b0035
:103150000804e900f4ff370003067800808070005f
:1031600082807000010032006106760087017800dd
:103170000601780085007800040078008804780053
:10318000780037008d0037008c06460002003a00b8
:103190000000a6000000060060004800e080480033
:1031a00060014900e08149000350a60000000600cc
:1031b0008301d1000804e800000006000002fd00c1
:1031c0008102fd000203fd008303fd008804fd0071
:1031d0008a05fd00000006007048e1001a00390071
:1031e0007d0320000d48e1000a00390081057000d0
:1031f000830671008c8575008d8575000006eb00d7
:103200001cd8e700610676006000b8006011b800c5
:10321000000006007048e1000b0039008c057800c2
:103220000006780001007800820078000301780031
:103230008001eb0013d8e70061067600f0845400ab
:10324000f4ff3a00000006006160e1000c48ad00a8
:10325000f08514008b06dd000966de000d067600a1
:103260008b0edd000900de000d0070008b16dd0006
:103270008908de008d8070008b1edd000911de00e4
:103280000d0171008919de00000006000d00280004
:10329000fc7f20000d856100441cde00ef81610091
:1032a0000c046400010032000340a0008d8563001f
:1032b000c43cde00ef8363008c84640001003200b4
:1032c0000740a0000c40e10006003a00ef866100d4
:1032d0008286760081867600808676000100320044
:1032e000180037000c48e10007003a00ef86630041
:1032f0008686760085867600848676000200320017
:10330000aeff07000f0037000348a30005003a0096
:103310008106700082867600838676000100320086
:103320000804e8000748a30005003a00850672007b
:103330008686760087867600010032008904e800e0
:1033400000000600cf047800cf0578001b0037008e
:10335000000278008102780002037800830378007d
:10336000880478000cf0a70087ff0700fd7f20008d
:103370000d40e100040035000d0478006000b80045
:103380006011b8000d0037000800e0000b003c00a1
:103390000400780085007800060178008701780035
:1033a000e18414008cff07000cf0a70076ff0700f3
:1033b0000004eb000340a7000804e8004444dd00db
:1033c0006fc56100880175004f04be004f05be0047
:1033d0004f06be0000000600800078005002be00cc
:1033e0005003be004439de00f700b200f37f200036
:1033f00003016100090032000218e10016003a00e2
:10340000850172008301730083817300000820002e
:1034100015003a00400020001300370085017200bb
:10342000830173008381730005003a0004a8be0085
:1034300006a8be00100020000b0037000201e900c2
:103440000402420085824a0006034b0087834b003a
:103450000748a300f9ff32000740a00004a8be00ff
:1034600006a8be002000200080009800920098006e
:1034700000000600680447000294be000094be00ed
:10348000fc0447008694be008494be0009007800c6
:10349000d1ff070008007800cfff070099007800ef
:1034a000814f70000b003b000800be000a000700bf
:1034b0004f00b10003003700f3ff2700f2ff2f0099
:1034c0006110b9004f06be004f05be004f04be009c
:1034d0000080fa0000000600e48240001078a3009b
:1034e00007003200640240001178a3003400be00df
:1034f0001401be00040032000330a70000000600e3
:103500003500be001501be000330a000000006001b
:103510001800fa00889fbe008a9fbe008c1f7800aa
:103520000004be000205be000802be000a03be0081
:10353000443ade00f07f20000006620020432000b5
:10354000800f560067003c006022b8006033b8006e
:103550000800be004cf607000000e00061003200e9
:103560000802be000a03be00b4b79f00c5b79f00a3
:10357000d6b79f00e7b79f00e00f5200e08f5a00d8
:10358000e00f5b00e08f5b000b003d006022b800a5
:1035900006002000073324000800be000a01be0018
:1035a0006cfd07006022b8000600200007332400ed
:1035b0006efd07000a0037006022b80006002000f8
:1035c000073324000800be000a01be0067fd0700a3
:1035d0006022b80006002000073324005dfd0700cc
:1035e0000802be000a03be005afd07000002be002a
:1035f0000203be00f4b79f0085bf9f0096bf9f00e7
:10360000a7bf9f00e03f2000800f560017003c003e
:103610007fb097008fb897001fb99700afb9970098
:10362000f0af9f0081b79f0092b79f00a3b79f00a4
:103630006044b8006055b8003fb29700cfb2970021
:103640005fb39700efb39700e00f5200e08f5a008e
:10365000e00f5b00e08f5b0022003d006044b8009b
:103660000a0020000bff2b001e0037006022b8006c
:103670006033b8007fb097008fb897001fb99700ec
:10368000afb9970005f607000000e0000c00340019
:103690007fb297008fba97001fbb9700afbb970010
:1036a0000800be000a01be0030fd07006022b8001d
:1036b0000600200007ff230026fd07000700370053
:1036c0007fb297008fba97001fbb9700afbb9700e0
:1036d0000800be000a01be0024fd07000004be0071
:1036e0000205be000800be000a01be004f067800b9
:1036f0004f05be004f04be000080fa000000060027
:020000040000fa
:103700005f5f0000050800000000000000000000ee
:103710000000000000fa00000000000000e00000cf
:1037200000e0000000280000fe280000fe28000045
:1037300024540000fe54000048c40000c8100000db
:10374000264600006c9200006a0400000a00000097
:1037500010e00000c00000000038000044820000bb
:1037600000000000824400003800000054380000cf
:10377000fe38000054100000107c00001010000003
:10378000000000000e0c00000010000010100000ef
:1037900010100000000000000606000000040000f9
:1037a00008100000204000007c8a000092a2000067
:1037b0007c00000042fe0000020000004e9200006b
:1037c000929200006284000082920000b2cc00005d
:1037d0001828000048fe000008e40000a2a2000033
:1037e000a29c00003c520000929200008c820000db
:1037f0008488000090e000006c920000929200002b
:103800006c620000929200009478000000000000ba
:103810002800000000000000022c00000000000052
:103820000010000028440000822800002828000022
:1038300028280000008200004428000010400000fa
:10384000809a0000906000007c820000ba9a00001c
:10385000723e000048880000483e0000fe920000d2
:10386000929200006c7c0000828200008244000082
:10387000fe820000828200007cfe00009292000026
:1038800092820000fe90000090900000807c00007a
:10389000828200008ace0000fe100000101000009e
:1038a000fe00000082fe0000820000000402000012
:1038b00082fc000080fe000010280000448200000e
:1038c000fe0200000202000002fe0000403800007c
:1038d00040fe0000fe20000010080000fe7c0000fa
:1038e00082820000827c0000fe9000009090000028
:1038f000607c0000828a0000847a0000fe90000054
:10390000989400006264000092920000924c0000c3
:10391000c0800000fe800000c0fc00000202000029
:1039200002fc0000f804000002040000f8fc0000a3
:10393000021c000002fc0000c62800001028000045
:10394000c6c00000201e000020c00000869a0000b3
:1039500092b20000c2000000fe82000082820000dd
:1039600040200000100800000400000082820000d7
:1039700082fe000020400000804000002002000085
:10398000020200000202000000c00000e01000007f
:10399000000400002a2a00001c020000fe1400009f
:1039a000222200001c1c0000222200002214000021
:1039b0001c22000022140000fe1c00002a2a000025
:1039c0002a180000001000007e9000004030000027
:1039d0004a4a0000523c0000fe1000002020000077
:1039e0001e00000022be00000200000004020000d1
:1039f00002bc000000fe00000814000022000000cd
:103a000000820000fe020000003e0000201e0000b8
:103a1000201e00003e100000202000001e1c0000a0
:103a200022220000221c00003e1800002424000076
:103a30001818000024240000183e00003e1000006a
:103a400020200000101200002a2a00002a24000072
:103a500020200000fc220000243c000002020000a4
:103a6000043e00003804000002040000383c00005e
:103a7000020c0000023c00002214000008140000a8
:103a8000223200000a0a00000a3c00002226000040
:103a90002a32000022000000106c000082000000aa
:103aa00000000000fe00000000000000826c00002a
:103ab0001000000040800000402000004000000096
:103ac000dff700005aff0000ff070000fa7f000048
:103ad000fff70000bbf7000038ff00000000000007
:103ae00059ff00001f0000005c89000045a1000094
:103af000d0dd0000f45c0000e07f000043d3000054
:103b0000eafb0000bd640000dbff0000a7d8000056
:103b1000ff070000110000005104000021bc00005c
:103b200055ad00002003000055ad0000adbd000004
:103b3000118800004553000060fc000099990000c6
:103b400000880000afec0000f18d0000f14900009a
:103b5000692a0000692a00007a0600001a90000015
:103b6000b2f80000ff0500004d6b00004d6b000037
:103b70009f1c000004b10000deff00004424000090
:103b80001ff80000fbde0000dfff0000a0fe0000c9
:103b900024dd00001084000000040000e5af0000f8
:103ba00010840000fef7000056fb0000ebca000086
:103bb00010480000feff000031f700003fe7000062
:103bc0009eff0000e07f0000d9ff0000dcae000097
:103bd00010f40000ffe70000daff00009ad60000b2
:103be000729700009ad60000b8fd00000ffd00009b
:103bf000952500007f860000537400005374000078
:103c00003bb60000fcff0000e00700006636000045
:103c10009cff00001ff80000008000007566000097
:103c200019000000baba00009b9300008e3d00000e
:103c30005d7b0000d3070000994e0000b0c000007b
:103c4000ce180000fff700003cff000036ff000028
:103c5000f5fe000010000000bcff00000084000022
:103c6000646c000020fd000020fa00009adb0000d8
:103c700055ef0000d39f00007daf000092db0000f5
:103c80007aff0000d7fe000027cc000019fe0000dc
:103c90001bdd00001cb700001080000000f80000d1
:103ca00071bc00005c430000228a00000efc000092
:103cb0002cf500004a2c0000bdff000085a200008a
:103cc00018c600007d860000d96a0000127400004a
:103cd00012740000dfff0000ef0700001644000030
:103ce000b1d5000010040000fbdd000008fb00005f
:103cf0001a4700001dec0000f6f60000ffff000070
:103d0000bef70000e0ff0000669e0000ff07000015
:103d1000e0ff0000ff03000080ff0000ff01000043
:103d200000ff0000ff01000000fe0000ff00000097
:103d300000fc0000ff08000008f800007f180000e9
:103d400018f800003f3c00003cf000003f3e00003f
:103d50003ef000001f1e00001ef000000f1f0000bc
:103d60001ff000008f0f00000ff100008f8f000088
:103d70008ff10000cfc70000c7f30000cfc30000e1
:103d8000c3f70000ffc3000083ff0000ffc1000075
:103d900081ff0000ff80000001ff0000ff00000025
:103da00000fe00007f00000000fe00007f00000019
:103db00000fe0000ff01000080ff0000ff07000080
:103dc000e0ff00004375000072720000656e0000a5
:103dd000743a0000202500002e310000662000000b
:103de000412000002020000020000000566f00004d
:103df0006c74000061670000653a00002025000037
:103e00002e6c0000662000005620000020200000dc
:103e1000000000000030000000340000003000000e
:103e2000001000000010000000300000003400000e
:103e300000300000003000000030000000340000be
:103e400000340000003000000010000000100000ee
:103e500000300000003000000010000000100000e2
:103e6000003000000034000000340000003000008a
:103e700000300000ffff00004e240000e623000099
:103e8000de260000922700001c2d0000000000002c
:103e90000000000000000000000000000000000022
:103ea0000000000001000000862700000000000064
:103eb000000000003a510000785b000094510000bf
:103ec000ae510000ea510000225200005c52000096
:103ed000685200008e520000725200004e6f0000c7
:103ee0007620000031370000203200003032000020
:103ef00030310000303a0000333400003a30000026
:103f000038000000200100000f0000000000000049
:0c3f1000200100008f01000000000000f4
:020000040000fa
:103f1c001800fa00889fbe008a9fbe008c1f780094
:103f2c0000067800f4af9f0085b79f0096b79f00fe
:103f3c00a7b79f002c709000ef4060000068a300b2
:103f4c000b003200e4cf50003b003200e8cf5000b1
:103f5c004e0032000046eb000c4078004f06780013
:103f6c004f05be004f04be000080fa0000000600a2
:103f7c000058a30018003200e2cf50006700320056
:103f8c008c003e00e1cf5000f2ff3a008c699000ab
:103f9c000c6090006fda97003c299000e10f510003
:103fac00250132000046eb0080cf5100eaff3400bf
:103fbc0001467800844f5000e6ff35000c40780035
:103fcc004f0678004f05be004f04be000080fa007b
:103fdc0000000600e6ff3700e2cf5000620032001e
:103fec00a6003e00e1cf5000daff3a008c69900049
:103ffc000c6090006fda97003c299000e10f5100a3
:10400c00000132000046eb0080cf5100d2ff360099
:10401c0001467800844f5000ceff39000c407800e8
:10402c004f0678004f05be004f04be000080fa001a
:10403c0000000600ceff37004c109000dc10900002
:10404c000c1490009c1490007fad97008fb59700d6
:10405c003c2e9000e10f5600870132000801be0093
:10406c0092f307000000e000baff34001cc0b3005c
:10407c000801be000a00be008af307000000e00041
:10408c00b5ff34000046eb00b3ff37004c10900036
:10409c00dc1090006c119000fc1190000c1490003e
:1040ac009c1490002c159000bc1590007faa9700d2
:1040bc008fb297001fb39700afb39700b4b79f00b0
:1040cc00c5b79f00d6b79f00e7b79f003c2e900066
:1040dc00e10f5600530132000802be000a03be0075
:1040ec006bf307000000e0009aff34001cc0b30023
:1040fc000802be000a03be003fb09700cfb0970085
:10410c005fb19700efb197005cf307000000e0008f
:10411c0091ff34000046eb008fff37004c119000ec
:10412c000c109000ffa99700bc289000e18f500064
:10413c00db0032000046eb00800f510086ff34009c
:10414c001cc0b300830f500082ff35000c40780078
:10415c004f0678004f05be004f04be000080fa00e9
:10416c000000060082ff37004c1190000c109000ec
:10417c00ffa99700bc289000e18f5000bb003200d3
:10418c000046eb00800f510073ff36001cc0b300db
:10419c00830f50006fff39000c4078004f067800f9
:1041ac004f05be004f04be000080fa000000060060
:1041bc006fff3700e4cf50007a003200e8cf500098
:1041cc0064ff3a004c149000dc1490006c159000c5
:1041dc00fc159000f8b79f0089bf9f009abf9f0005
:1041ec00abbf9f000c1090009c1090002c11900005
:1041fc00bc119000b4b79f00c5b79f00d6b79f0005
:10420c00e7b79f00bc2a9000e18f5200ea00320011
:10421c000046eb007fb497008fbc97001fbd970042
:10422c00afbd97000040e10001c8e10002d0e10001
:10423c0003d8e10048ff34001cc0b3003fb2970024
:10424c00cfb297005fb39700efb397000400e10083
:10425c000588e1000690e1000798e1003dff35007c
:10426c000c4078004f0678004f05be004f04be008e
:10427c000080fa00000006003dff3700e4cf50003c
:10428c0030003200e8cf500032ff3a004c1490005e
:10429c00dc1490006c159000fc159000f8b79f0092
:1042ac0089bf9f009abf9f00abbf9f000c1090006e
:1042bc009c1090002c119000bc119000b4b79f0082
:1042cc00c5b79f00d6b79f00e7b79f00bc2a9000e8
:1042dc00e18f52009d0032000046eb007fb4970046
:1042ec008fbc97001fbd9700afbd97000040e10049
:1042fc0001c8e10002d0e10003d8e10016ff36004e
:10430c001cc0b3003fb29700cfb297005fb39700c9
:10431c00efb397000400e1000588e1000690e1008e
:10432c000798e1000bff39000c4078004f0678002d
:10433c004f05be004f04be000080fa0000000600ce
:10434c000bff37004c129000dc1290000c10900008
:10435c009c1090007fab97008fb397003c29900086
:10436c00e10f51006a0032000046eb00800f520052
:10437c00818f5a00f8fe36001cc0b300860f500027
:10438c00878f5800f3fe39000c4078004f067800f8
:10439c004f05be004f04be000080fa00000006006e
:1043ac00f3fe37004c129000dc1290000c109000c1
:1043bc009c1090007fab97008fb397003c29900026
:1043cc00e10f5100430032000046eb00800f520019
:1043dc00818f5a00e0fe34001cc0b300860f5000e1
:1043ec00878f5800dbfe35000c4078004f067800b4
:1043fc004f05be004f04be000080fa00000006000e
:10440c00dbfe37000046eb0080cf5100d2fe3100be
:10441c0002467800844f5000cefe3e000c407800df
:10442c004f0678004f05be004f04be000080fa0016
:10443c0000000600cefe37000046eb0080cf510096
:10444c00c5fe3d0002467800844f5000c1fe3c0082
:10445c000c4078004f0678004f05be004f04be009c
:10446c000080fa0000000600c1fe37000046eb0099
:10447c00800f5100b8fe310001467800830f5000c8
:10448c00b4fe3e000c4078004f0678004f05be008d
:10449c004f04be000080fa0000000600b4fe370096
:1044ac000046eb00800f5100abfe3d00014678004a
:1044bc00830f5000a7fe3c000c4078004f0678009c
:1044cc004f05be004f04be000080fa00000006003d
:1044dc00a7fe37000046eb00800f5200818f5a0078
:1044ec009dfe3d0002467800860f5000878f5800d5
:1044fc0098fe3c000c4078004f0678004f05be003b
:10450c004f04be000080fa000000060098fe370041
:10451c000046eb00800f5200818f5a008efe310056
:10452c0002467800860f5000878f580089fe3e00a7
:10453c000c4078004f0678004f05be004f04be00bb
:10454c000080fa000000060089fe37000046eb00f0
:10455c007fb497008fbc97001fbd9700afbd97002d
:10456c000040e10001c8e10002d0e10003d8e10005
:10457c0079fe3100054678003fb29700cfb2970024
:10458c005fb39700efb397000400e1000588e100ea
:10459c000690e1000798e1006efe3e000c407800aa
:1045ac004f0678004f05be004f04be000080fa0095
:1045bc00000006006efe37000046eb007fb497004b
:1045cc008fbc97001fbd9700afbd97000040e10066
:1045dc0001c8e10002d0e10003d8e1005efe3d001d
:1045ec00054678003fb29700cfb297005fb39700b3
:1045fc00efb397000400e1000588e1000690e100ac
:10460c000798e10053fe3c000c4078004f06780000
:10461c004f05be004f04be000080fa0000000600eb
:10462c0053fe37000802be000a03be0013f2070057
:10463c000000e00047fe3d000802be000a03be0079
:10464c003fb09700cfb097005fb19700efb19700e4
:10465c000ff207000000e0003efe35000c40780031
:10466c004f0678004f05be004f04be000080fa00d4
:10467c00000006003efe37000801be0009f20700ec
:10468c000000e00033fe3d000801be000a00be0041
:10469c0006f207000000e0002efe35000c4078000a
:1046ac004f0678004f05be004f04be000080fa0094
:1046bc00000006002efe37000001eb000000e000b9
:1046cc0002003a0002007800000006009001780019
:1046dc00818f51000c0032000300e000f9ff320022
:1046ec00640140000200780092017800818f510033
:1046fc0005003200640141000300e000f9ff3a00bc
:10470c0000000500f1ff37000001eb000300e000a2
:10471c00ecff32001000900000000600ebff3700a9
:10472c00efc06000e2cf50001800320007003600e6
:10473c00e4cf50001c003200e8cf50000d003200d6
:10474c000400be000601be0000000600e1cf5000d0
:10475c00fbff3a00104278000482fb008002eb0061
:10476c006033b8000400be000601be000000060065
:10477c00f6ff37003002be002003be000400be006e
:10478c000601be0000000600f0ff370010027800a2
:10479c008002eb006033b8000400be000601be00ce
:1047ac0000000600e9ff37001002be006033b800bd
:1047bc000400be000601be0000000600e3ff370047
:1047cc000088eb0080007800f1014000700240008e
:1047dc000001eb008028eb008069eb00848f500017
:1047ec00fbff3a00c1052100510898006022b80077
:1047fc006033b8000410980015109800261098002b
:10480c0037109800441098005510980066109800c6
:10481c0077109800021898002270980022189800bf
:10482c006022b80034189800451898008040eb00be
:10483c0021789800327898006218980072189800c5
:10484c000220980022c0980024209800352098005f
:10485c00442098005520980042c898007420980075
:10486c0005289800823821000300200012289800a7
:10487c002328980011002000312898006208980025
:10488c0073089800d1828000c008980000000600d0
:10489c000800fa00881f780000047800281890009f
:1048ac00e60f500014003e00e50f500030003900b8
:1048bc00a87090000818900099ff07000203be0032
:1048cc000002be00b0bf9f00c1bf9f00d2bf9f00bf
:1048dc00e3bf9f00080078008dfd07000004e00096
:1048ec00f900320040002000201c98004f04780092
:1048fc000080fa0000000600e70f50008000320034
:10490c00e80f5000f9ff3a0078189000e818900072
:10491c000001e800721c9800810f5000f3ff390071
:10492c000000eb00701c9800287890000080fb00c1
:10493c008000eb0048219000d8219000000041003d
:10494c00818049004024980051249800e00f5000c9
:10495c00e08f5800e5ff350020002000201c980057
:10496c004f0478000080fa0000000600e2ff3700d8
:10497c00e20f5000a0003200e40f5000de003200c5
:10498c00e10f5000d9ff3a0078189000e818900019
:10499c000001e800721c9800810f50002e003900b5
:1049ac000000eb00701c980038199000c81990009a
:1049bc00287890000080fb008000eb000000410094
:1049cc008180490084382100840f5000e08f58000a
:1049dc00040036006033b800361c9800471c980061
:1049ec006011b8008043eb008782fb000040eb00b5
:1049fc000503e800f282420006034300060344006c
:104a0c0085024400d8089000828040000082fb00a0
:104a1c00160242009448780061014100e08149008f
:104a2c00321c9800431c98000040e800954f500041
:104a3c00f4ff39008743e8003878900080cf5300aa
:104a4c00e9ff39007820900088289000820f5000f0
:104a5c00838f5800bc003600a87090000818900096
:104a6c002fff07000203be000002be00b0bf9f0074
:104a7c00c1bf9f00d2bf9f00e3bf9f00080078001a
:104a8c0023fd07000004e0008f00320048c89000ae
:104a9c000004e0008c00320028209000b820900028
:104aac00e00f5000e08f5800aa0035003818900035
:104abc00c8189000e00f5000e08f5800b000320092
:104acc00781990000200e000b4003a0028799000b8
:104adc000281fb008001eb00020050008380580033
:104aec00402498005124980070002000201c98004d
:104afc004f0478000080fa00000006007eff3700ab
:104b0c0078189000e81890000001e800721c9800da
:104b1c00810f500075ff39000000eb00701c9800ed
:104b2c0038199000c8199000287890000080fb007c
:104b3c008000eb0000004100818049008438210096
:104b4c00840f5000e08f5800040036006033b8002a
:104b5c00361c9800471c98006011b8008043eb008d
:104b6c008782fb000040eb000503e800f282420064
:104b7c00060343000603440085024400d808900055
:104b8c00828040000082fb001602420094487800ac
:104b9c0061014100e0814900321c9800431c9800df
:104bac000040e800954f5000f4ff39008743e800bf
:104bbc003878900080cf5300e9ff390048209000ee
:104bcc00d8209000020150008381580028209000ca
:104bdc00b8209000800f5100818f590050003e008a
:104bec000000eb00201c98004f0478000080fa00b5
:104bfc000000060040ff370078189000e81890007d
:104c0c000001e800721c9800810f50002700390049
:104c1c000000eb00701c980038199000c819900027
:104c2c008043eb008782fb000040eb000503e800ab
:104c3c00f28242000603430006034400850244004e
:104c4c00d8089000828040000082fb0016024200cf
:104c5c009448780061014100e0814900321c9800c1
:104c6c00431c98000040e800954f5000f4ff3900b9
:104c7c008743e8003878900080cf5300e9ff390073
:104c8c00287890000080fb008000eb0002014000bf
:104c9c008381480080382100800f5100e08f59003b
:104cac00020036000000eb00201c98000820900049
:104cbc000000e800002498004f0478000080fa00ff
:104ccc00000006000cff37003fb89700cfb89700e4
:104cdc005fb99700efb997004014980051149800f1
:104cec0062149800731498004f0478000080fa0046
:104cfc000000060000ff3700082090000000e800cc
:104d0c0000249800781890000000e800701c9800af
:104d1c004f0478000080fa0000000600f6fe370011
:104d2c00182a9000a82a90000201420083814a00b0
:104d3c00820f5000838f5800ecfe39000000eb000e
:104d4c00201c9800a8ff370010c0b30040cc98007e
:104d5c0041ff370040249800512498006033b8007c
:104d6c00361c9800471c980080002000201c9800de
:104d7c004f0478000080fa0000000600defe3700c9
:104d8c00287890000080fb008000eb001829900030
:104d9c00a8299000000051008180590040249800ff
:104dac005124980070002000201c980050ff370000
:104dbc004071900082487800307a900094409800be
:104dcc0040799000a2409800507a9000b44098002e
:104ddc0060719000c240980030199000c01990008a
:104dec00481add004811de0002017200c819de000d
:104dfc00d240980000799000e2409800107a900020
:104e0c00f440980020599000824898005009900076
:104e1c00cf91de00481add004811de00020172005d
:104e2c00c819de009248980050099000cf91de001e
:104e3c00a348980050099000cf91de004819de007d
:104e4c00b248980040c19000c248980020219000c0
:104e5c00b0219000481add004811de0002017200fa
:104e6c00d248980060c19000e248980070c290004f
:104e7c00f448980000c9900082509800402190009e
:104e8c00d0219000481add004811de0002017200aa
:104e9c009250980020c99000a250980030ca9000ff
:104eac00b450980020d19000c25098001029900066
:104ebc00a0299000481add004811de0002017200a2
:104ecc00c819de00d250980040d19000e2509800f2
:104edc0050d29000f450980040599000825898009d
:104eec0060099000f0099000481add004811de00be
:104efc0002017200c819de009258980060599000a7
:104f0c00a258980070589000b058980020c8b30070
:104f1c00c0589800d00105004f02b000889fbe0019
:104f2c008a9fbe008c9fbe008e1f78000004be00be
:104f3c0082d79f001ec0b300e34f5100bd00360066
:104f4c00090578005a407800e84f5000b9003e003f
:104f5c000004e000b70032000000eb00201c9800b9
:104f6c008040eb00307c9800002498006011b80061
:104f7c00321c9800431c9800b9419000c819dd0000
:104f8c00294090000080fb0000804100601c9800cc
:104f9c00701c98006022b8006033b800441498006c
:104fac00551498006614980077149800217c98008a
:104fbc0020c0b30020c4980041cc98006022b800f7
:104fcc0044249800552498001a04e0001d02320075
:104fdc004bc0b30081467800833821000b46e800b3
:104fec000b80fb000080440010477800e14f570015
:104ffc00f6003200960031000d87fb000c86fb009a
:10500c000e00e80000004000000044000c86440044
:10501c008c00e8001182fb008002eb00482bdd00c5
:10502c00c823de00870373004823dd001c82fb00cd
:10503c008002eb00040843004c4090000e07440033
:10504c00205798002879900002414000227c98005b
:10505c00a8c0900000c0400020c498000281fb0052
:10506c00050009008201d80001805100cf80de00cc
:10507c00102c9800212c9800e6c545008d46e800c0
:10508c009acf1600d5ff3e008b80fb008b45e800c5
:10509c000b80fb008b46e800818044009145780032
:1050ac002b7498000080440010467800e14f5600a5
:1050bc00f8013200220131000d80fb000080440019
:1050cc008000e8001182fb008002eb00482bdd0021
:1050dc00c823de00870373004823dd008080e800ce
:1050ec001182fb008002eb00c022dd0004002000d6
:1050fc000603420087834a001082fb008002eb000b
:10510c000600420087804a00001c980064c74600d5
:10511c00efc66500e2cf5600050232001f013e00cb
:10512c00e1cf56004e003a008e81fb008381440093
:10513c00134278000482fb008002eb006033b8005d
:10514c00041498001514980026149800371498002d
:10515c000b04e0000f013500287090000054a000f3
:10516c0020749800e44547008b80fb00818044004c
:10517c000100e8001082fb008002eb00482bdd00f0
:10518c00c823de00870373004823dd000180e8009c
:10519c001082fb008002eb00c022dd000400200026
:1051ac000603420087834a001182fb008002eb0059
:1051bc000603420087834a00e38040001180fb0015
:1051cc008000eb00c802dd00040020000600420055
:1051dc0087804a002024980031249800db160700b1
:1051ec0070249800012c980064c045000080fb00de
:1051fc00008044001080fb00302c9800e5c5450071
:10520c008fd097008bcf5000c00036000b80fb0076
:10521c000080440012c0b300904f1100bb0032005c
:10522c001a4578003a7c98001980fb00201c9800e5
:10523c000047eb000e4078004f0778004f06be0089
:10524c004f05be004f04be004f02b1000000060027
:10525c00e24f570034003200e34f57000900320090
:10526c001ec0b3000e4078004f0778004f06be00fa
:10527c004f05be004f04be004f02b10000000600f7
:10528c00f3ff37000c86fb00d08280001000780002
:10529c000c864400e30046001181fb004811dd0040
:1052ac008c80e8009180fb0081004100a3b79f0037
:1052bc0001fd0700afb197000000e000e8ff3200ed
:1052cc000d87fb008e00e8008180400081004400c7
:1052dc00900878004c4090000e074400205798002e
:1052ec002879900002414000227c9800a8c09000d0
:1052fc0000c0400020c498000281fb00050009009a
:10530c008201d80001805100cf80de00102c980063
:10531c00212c9800e6c545008d46e8009acf160072
:10532c002eff3e0058ff37000c86fb00d082800019
:10533c00100078000c864400e30046001181fb004d
:10534c004811dd008c80e8009180fb008100410059
:10535c00a3b79f00d8fc0700afb197000000e00096
:10536c00bfff32000d87fb008e00e80081804000fb
:10537c0081004400800878004c4090000e074400e7
:10538c00205798002879900002414000227c980018
:10539c00a8c0900000c0400020c498000281fb000f
:1053ac00050009008201d80001805100cf80de0089
:1053bc00102c9800212c9800e6c545008d46e8007d
:1053cc009acf160005ff3e002fff37000c86fb001e
:1053dc000c8644000c007800b0427800a5df9f00da
:1053ec0010407800a0d79f00d28280001200780075
:1053fc00e30046001182fb004822dd008c80e800af
:10540c009180fb008100420092b79f00a3b79f00e0
:10541c00a9fc07001fb19700afb197000000e00096
:10542c0084ff320090007800120190001202780084
:10543c00848f50000c0032000400e0007dff32002d
